{
  "address": "0x20D387Da2dB0D66646624AC8455A5b87DebAD4BC",
  "abi": [
    {
      "anonymous": false,
      "inputs": [
        {
          "indexed": false,
          "internalType": "address",
          "name": "sender",
          "type": "address"
        },
        {
          "indexed": false,
          "internalType": "string",
          "name": "applicationIpfsCid",
          "type": "string"
        }
      ],
      "name": "ApplicationSubmitted",
      "type": "event"
    },
    {
      "inputs": [
        {
          "internalType": "string",
          "name": "applicationIpfsCid",
          "type": "string"
        }
      ],
      "name": "submitApplication",
      "outputs": [],
      "stateMutability": "nonpayable",
      "type": "function"
    }
  ],
  "transactionHash": "0x121857ab4809e0509dd07642e6c0ae860ae12363063fcaa7a54fdaca6abdcb5e",
  "args": [],
  "numDeployments": 1,
  "solcInputHash": "e1b828727066e4d04981853d4ef9aa23",
  "bytecode": "0x608060405234801561001057600080fd5b5061024e806100206000396000f3fe608060405234801561001057600080fd5b506004361061002b5760003560e01c8063778c559b14610030575b600080fd5b61004a600480360381019061004591906100fa565b61004c565b005b7f4d954d97ff5f7e3ceb48557e63515f2b6d839b08e9cb52c79f8be5347e86ad5533838360405161007f939291906101e6565b60405180910390a15050565b600080fd5b600080fd5b600080fd5b600080fd5b600080fd5b60008083601f8401126100ba576100b9610095565b5b8235905067ffffffffffffffff8111156100d7576100d661009a565b5b6020830191508360018202830111156100f3576100f261009f565b5b9250929050565b600080602083850312156101115761011061008b565b5b600083013567ffffffffffffffff81111561012f5761012e610090565b5b61013b858286016100a4565b92509250509250929050565b600073ffffffffffffffffffffffffffffffffffffffff82169050919050565b600061017282610147565b9050919050565b61018281610167565b82525050565b600082825260208201905092915050565b82818337600083830152505050565b6000601f19601f8301169050919050565b60006101c58385610188565b93506101d2838584610199565b6101db836101a8565b840190509392505050565b60006040820190506101fb6000830186610179565b818103602083015261020e8184866101b9565b905094935050505056fea264697066735822122021d1068caa34b33194467d5082a4c695a395fd699dead13b688331aa2e0c785864736f6c63430008090033",
  "devdoc": {
    "kind": "dev",
    "methods": {},
    "version": 1
  },
  "userdoc": {
    "kind": "user",
    "methods": {},
    "version": 1
  },
  "storageLayout": {
    "storage": [],
    "types": null
  }
}