{
  "address": "0x7a2088a1bFc9d81c55368AE168C2C02570cB814F",
  "abi": [
    {
      "inputs": [
        {
          "internalType": "contract AddrsSeq",
          "name": "_keypers",
          "type": "address"
        }
      ],
      "stateMutability": "nonpayable",
      "type": "constructor"
    },
    {
      "inputs": [],
      "name": "SenderNotKeyper",
      "type": "error"
    },
    {
      "anonymous": false,
      "inputs": [
        {
          "indexed": false,
          "internalType": "bytes8",
          "name": "epochID",
          "type": "bytes8"
        },
        {
          "indexed": false,
          "internalType": "bytes",
          "name": "key",
          "type": "bytes"
        },
        {
          "indexed": false,
          "internalType": "address",
          "name": "keyper",
          "type": "address"
        }
      ],
      "name": "DecryptionKey",
      "type": "event"
    },
    {
      "anonymous": false,
      "inputs": [
        {
          "indexed": false,
          "internalType": "uint64",
          "name": "activationBlockNumber",
          "type": "uint64"
        },
        {
          "indexed": false,
          "internalType": "bytes",
          "name": "key",
          "type": "bytes"
        },
        {
          "indexed": false,
          "internalType": "address",
          "name": "keyper",
          "type": "address"
        }
      ],
      "name": "EonKey",
      "type": "event"
    },
    {
      "inputs": [
        {
          "internalType": "uint64",
          "name": "n",
          "type": "uint64"
        },
        {
          "internalType": "uint64",
          "name": "i",
          "type": "uint64"
        },
        {
          "internalType": "bytes8",
          "name": "epochID",
          "type": "bytes8"
        },
        {
          "internalType": "bytes",
          "name": "k",
          "type": "bytes"
        }
      ],
      "name": "broadcastDecryptionKey",
      "outputs": [],
      "stateMutability": "nonpayable",
      "type": "function"
    },
    {
      "inputs": [
        {
          "internalType": "uint64",
          "name": "n",
          "type": "uint64"
        },
        {
          "internalType": "uint64",
          "name": "i",
          "type": "uint64"
        },
        {
          "internalType": "uint64",
          "name": "activationBlockNumber",
          "type": "uint64"
        },
        {
          "internalType": "bytes",
          "name": "key",
          "type": "bytes"
        }
      ],
      "name": "broadcastEonKey",
      "outputs": [],
      "stateMutability": "nonpayable",
      "type": "function"
    },
    {
      "inputs": [],
      "name": "keypers",
      "outputs": [
        {
          "internalType": "contract AddrsSeq",
          "name": "",
          "type": "address"
        }
      ],
      "stateMutability": "view",
      "type": "function"
    }
  ],
  "transactionHash": "0x6d75b342c9527ba971d33f5084909d49fcf7d816c13629a0a17a7e306965e309",
  "args": [
    "0x5FbDB2315678afecb367f032d93F642f64180aa3"
  ],
  "numDeployments": 1,
  "solcInputHash": "a0c4416997147c1c7d7ddd4d65f9c649",
  "bytecode": "0x608060405234801561001057600080fd5b50604051610917380380610917833981810160405281019061003291906100ed565b806000806101000a81548173ffffffffffffffffffffffffffffffffffffffff021916908373ffffffffffffffffffffffffffffffffffffffff1602179055505061011a565b600080fd5b600073ffffffffffffffffffffffffffffffffffffffff82169050919050565b60006100a88261007d565b9050919050565b60006100ba8261009d565b9050919050565b6100ca816100af565b81146100d557600080fd5b50565b6000815190506100e7816100c1565b92915050565b60006020828403121561010357610102610078565b5b6000610111848285016100d8565b91505092915050565b6107ee806101296000396000f3fe608060405234801561001057600080fd5b50600436106100415760003560e01c80633f3e8bcb1461004657806351add04b146100625780635d18f06014610080575b600080fd5b610060600480360381019061005b9190610417565b61009c565b005b61006a6101f0565b604051610077919061051e565b60405180910390f35b61009a60048036038101906100959190610591565b610214565b005b60008054906101000a900473ffffffffffffffffffffffffffffffffffffffff1673ffffffffffffffffffffffffffffffffffffffff16633514709286866040518363ffffffff1660e01b81526004016100f7929190610628565b60206040518083038186803b15801561010f57600080fd5b505afa158015610123573d6000803e3d6000fd5b505050506040513d601f19601f82011682018060405250810190610147919061068f565b73ffffffffffffffffffffffffffffffffffffffff163373ffffffffffffffffffffffffffffffffffffffff1614156101ac576040517fd7714c1000000000000000000000000000000000000000000000000000000000815260040160405180910390fd5b7fda9123c2bd4802e28e048668da1c352d3059ba292ee1c27c6e301c8210436e21838383336040516101e19493929190610729565b60405180910390a15050505050565b60008054906101000a900473ffffffffffffffffffffffffffffffffffffffff1681565b60008054906101000a900473ffffffffffffffffffffffffffffffffffffffff1673ffffffffffffffffffffffffffffffffffffffff16633514709286866040518363ffffffff1660e01b815260040161026f929190610628565b60206040518083038186803b15801561028757600080fd5b505afa15801561029b573d6000803e3d6000fd5b505050506040513d601f19601f820116820180604052508101906102bf919061068f565b73ffffffffffffffffffffffffffffffffffffffff163373ffffffffffffffffffffffffffffffffffffffff161415610324576040517fd7714c1000000000000000000000000000000000000000000000000000000000815260040160405180910390fd5b7ff6ae80b9ddd3b16f6043b374f4bb3da6346f42828998d6dc4f568fa427daeee5838383336040516103599493929190610778565b60405180910390a15050505050565b600080fd5b600080fd5b600067ffffffffffffffff82169050919050565b61038f81610372565b811461039a57600080fd5b50565b6000813590506103ac81610386565b92915050565b600080fd5b600080fd5b600080fd5b60008083601f8401126103d7576103d66103b2565b5b8235905067ffffffffffffffff8111156103f4576103f36103b7565b5b6020830191508360018202830111156104105761040f6103bc565b5b9250929050565b60008060008060006080868803121561043357610432610368565b5b60006104418882890161039d565b95505060206104528882890161039d565b94505060406104638882890161039d565b935050606086013567ffffffffffffffff8111156104845761048361036d565b5b610490888289016103c1565b92509250509295509295909350565b600073ffffffffffffffffffffffffffffffffffffffff82169050919050565b6000819050919050565b60006104e46104df6104da8461049f565b6104bf565b61049f565b9050919050565b60006104f6826104c9565b9050919050565b6000610508826104eb565b9050919050565b610518816104fd565b82525050565b6000602082019050610533600083018461050f565b92915050565b60007fffffffffffffffff00000000000000000000000000000000000000000000000082169050919050565b61056e81610539565b811461057957600080fd5b50565b60008135905061058b81610565565b92915050565b6000806000806000608086880312156105ad576105ac610368565b5b60006105bb8882890161039d565b95505060206105cc8882890161039d565b94505060406105dd8882890161057c565b935050606086013567ffffffffffffffff8111156105fe576105fd61036d565b5b61060a888289016103c1565b92509250509295509295909350565b61062281610372565b82525050565b600060408201905061063d6000830185610619565b61064a6020830184610619565b9392505050565b600061065c8261049f565b9050919050565b61066c81610651565b811461067757600080fd5b50565b60008151905061068981610663565b92915050565b6000602082840312156106a5576106a4610368565b5b60006106b38482850161067a565b91505092915050565b600082825260208201905092915050565b82818337600083830152505050565b6000601f19601f8301169050919050565b60006106f983856106bc565b93506107068385846106cd565b61070f836106dc565b840190509392505050565b61072381610651565b82525050565b600060608201905061073e6000830187610619565b81810360208301526107518185876106ed565b9050610760604083018461071a565b95945050505050565b61077281610539565b82525050565b600060608201905061078d6000830187610769565b81810360208301526107a08185876106ed565b90506107af604083018461071a565b9594505050505056fea264697066735822122098a2b022e41b1081a3764f5ff069af645b731ffc5d07917532457fea3cb750a064736f6c63430008090033",
  "devdoc": {
    "kind": "dev",
    "methods": {},
    "version": 1
  },
  "userdoc": {
    "kind": "user",
    "methods": {},
    "version": 1
  },
  "storageLayout": {
    "storage": [
      {
        "astId": 2238,
        "contract": "contracts/KeyBroadcast.sol:KeyBroadcast",
        "label": "keypers",
        "offset": 0,
        "slot": "0",
        "type": "t_contract(AddrsSeq)2217"
      }
    ],
    "types": {
      "t_contract(AddrsSeq)2217": {
        "encoding": "inplace",
        "label": "contract AddrsSeq",
        "numberOfBytes": "20"
      }
    }
  }
}